:020000040800F2
:10000000503B002005010008B11100084D10000808
:1000100015110008550200080D43000800000000FB
:10002000000000000000000000000000D5400008B3
:10003000ED03000800000000C7010008D5210008FA
:100040001F0100081F0100081F0100081F01000810
:100050001F0100081F0100081F0100081F01000800
:100060001F0100081F0100081F0100081F010008F0
:100070001F0100081F0100081F0100081F010008E0
:100080001F0100081F0100081F0100081F010008D0
:100090001F0100081F0100081F0100081F010008C0
:1000A0001F0100081F0100081F0100081F010008B0
:1000B0001F0100081F0100081F0100081F010008A0
:1000C0001F0100081F0100081F0100081F01000890
:1000D0001F010008014300081F0100081F0100085C
:1000E0001F0100081F0100081F010008DFF810D0E1
:1000F00000F046F80048004749440008AFF300808C
:10010000503B00200648804706480047FEE7FEE7D0
:10011000FEE7FEE7FEE7FEE7FEE7FEE7FEE7FEE7B7
:1001200025410008ED00000872B6704762B67047BE
:10013000EFF3108072B6704780F31088704730BFBD
:10014000704720BF7047B0FA80F0704790FAA0F077
:10015000B0FA80F0704790FAA0F07047D2B201E098
:1001600000F8012B491EFBD270470022F6E710B5BC
:1001700013460A4604461946FFF7F0FF204610BD15
:10018000064C074D06E0E06840F0010394E80700E4
:1001900098471034AC42F6D3FFF7ACFFE0460008B6
:1001A0000047000818484FF0FF010170002080F35D
:1001B00009881648016881F3088815484FF0805176
:1001C000016062B6FEE772B6EFF3098028B120380D
:1001D00080E8F00F0F490968086000B50E488047B5
:1001E0005DF804EB0D480E490A78027009480D4984
:1001F0000A680260106890E8F00F203080F30988E8
:100200004EF0040E62B6704722ED00E03000002090
:1002100004ED00E0F8000020A91E00088A0000207C
:100220008B000020FC00002010B500F005F8BDE8B0
:10023000104000F00DBF000010B500F06BFB04494A
:100240000968BDE81040B0FBF1F001F0DBBF000031
:10025000B4460008FEE70000054910B500204860DC
:1002600000F0A6F800F006F8BDE8104000F086B8EF
:10027000100000202DE9F041104D002427462C806D
:100280006C80AC60EC606C61AC612C61FFF750FF7E
:10029000804600266C6100F049F800F057F8686964
:1002A000761C36040744360CF4D0C5E90474404685
:1002B000AC61BDE8F041FFF73FBF00001000002037
:1002C00003490969884201D9401A704700207047E4
:1002D0001000002010B5FFF72BFF04494C69FFF711
:1002E0002BFF2046BDE81040FFF7EABF10000020BA
:1002F00010B5FFF7EFFF0446FFF71AFF034A00218E
:100300005161FFF719FF204610BD000010000020CA
:1003100010B5FFF70DFF04498C69FFF70DFF20466C
:10032000BDE81040FFF7CCBF1000002010B5064C10
:100330002088401C2080608810B900F051F8A0602F
:100340006088401C608010BD1000002010B50A4C71
:100350006088401E0004000C60800CD100F040F862
:10036000E060A168401A6169814200D26061A169C0
:10037000814200D2A06110BD1000002010B5FFF72F
:10038000D7FE0446FFF7D2FF1021054800F0C3FE58
:10039000FFF7DCFF2046BDE81040FFF7CDBE0000B0
:1003A000F00800200149486070470000100000205C
:1003B000094810B5016841F08071016007480021CB
:1003C0004160016841F00101016000F0A3FABDE85D
:1003D0001040FFF7E7BF0000FCED00E0001000E078
:1003E0000148406870470000001000E07047704707
:1003F00010B590F821100022022905D00421816354
:1004000080F82020012010BD01680B6823F00E0346
:100410000B6001680B6823F001030B6090F840301B
:10042000C46B012101FA03F3636080F8211080F8A6
:100430002020104610BD000010B590F821100024B7
:10044000022903D00421816301243DE001680A6888
:1004500022F00E020A6001680A6822F001020A60B6
:100460001A4A0168914201D1012121E0174A143250
:10047000914201D110211BE0144A2832914201D14E
:10048000891515E0114A3C32914201D189140FE0DF
:100490000E4A5032914202D14FF4803108E00B4AAB
:1004A0006432914202D14FF4801101E04FF080712B
:1004B000064A083A5160012180F82110002180F895
:1004C0002010416B01B18847204610BD0800024052
:1004D0002DE9F84FDFF8B8910024A9F1040B234669
:1004E0000F2709F1040AABF1040EC9E00125A5406C
:1004F0002A40AA427DD1674ED1F804C0ACEB060871
:10050000B44532D014DCBCF1030F3AD009DCBCF1A5
:10051000000F2AD0BCF1010F1CD0BCF1020F31D169
:100520001DE0BCF1110F17D0BCF1120F2AD119E058
:10053000B8F5881F19D006DCB8F5803F15D0B8F59E
:10054000801F1FD111E0B8F5001F0ED0B8F5041FB1
:1005500018D10AE0CB6815E0CB681B1D12E0CB6810
:1005600008330FE0CB680C330CE08B682BB1012B08
:100570004FF0080303D0456104E0042302E0056165
:1005800000E00023FF2A01D8064601E000F104063E
:100590004FEA840501D9A5F12005D6F8008007FAB5
:1005A00005FC28EA0C0803FA05F548EA0508C6F830
:1005B00000804D68ED0062D5374DAE6946F001060A
:1005C000AE61AD6924F0030605F001050095334DD9
:1005D00006EB050CDCF80850A607360F07FA06F8FC
:1005E00025EA0805DFF8B880404503D14FF0000840
:1005F00017E044E0DFF8AC80404502D14FF001083D
:100600000FE0DFF8A480404502D14FF0020808E077
:10061000DFF89880404502D14FF0030801E04FF029
:10062000040808FA06F848EA0508CCF808804D687E
:10063000D9F80060ED024D4601D5164300E096431F
:100640002E604D68DAF80060AD02554601D51643BC
:1006500000E096432E604D68DBF80060AD035D4618
:1006600001D5164300E096432E604D68DEF8006029
:10067000ED03754601D5164300E096432E60641CD9
:100680000D682A46E5407FF431AFBDE8F88F0000E1
:100690000804014000001110001002400000014059
:1006A00000080140000C014000100140001401400E
:1006B0000AB1016170470904FBE700000148806846
:1006C0007047000000000020074810B5016841F0A5
:1006D00010010160032000F075F80F2000F006F80B
:1006E00000F024F8002010BD0020024070B50D4D30
:1006F00004464FF47A712878B1FBF0F00A49096892
:10070000B1FBF0F000F0E2FA48B9102C07D2002259
:100710002146501E00F036F800206C6070BD0120AC
:1007200070BD0000000000200C0000200C4808B53F
:10073000816941F001018161816901F0010100914C
:10074000C16941F08051C161C06900F080500090E2
:100750000448416821F0E06141F00071416008BD4A
:100760000010024000000140002809DB00F01F02D9
:10077000012191404009800000F1E020C0F8001103
:1007800070470000F0B40E4B1B680C46C3F3022305
:10079000C3F10705042D00D90425191D072901D22D
:1007A000002300E0DB1E012606FA05F1491E214068
:1007B00099409E40761E16403143F0BC03F0B0BD18
:1007C0000CED00E0064900F0070208684FF6FF0351
:1007D000184040EA0220034A1043086070470000B6
:1007E0000CED00E00000FA052DE9F0470F4605008A
:1007F00061D0434E306800F00700B84209D230683B
:1008000020F0070038433060306800F00700B8423D
:1008100051D128683B4C810712D5400703D5606849
:1008200040F4E06060602878000703D5606840F419
:10083000605060606068A96820F0F0000843606064
:100840002878C00728D06868012810D021680228BD
:1008500010D0890700292EDA616821F003010143D5
:100860006160FFF72BFF804641F288390DE0216877
:100870008903EFE78901EDE7FFF720FFA0EB08010F
:10088000494502D90320BDE8F0876068696800F037
:100890000C00B0EB810FEFD1306800F00700B842D8
:1008A0000BD9306820F0070038433060306800F022
:1008B0000700B84201D00120E5E72878400705D5B8
:1008C0006068E96820F4E060084360602878000709
:1008D00006D56068296920F4605040EAC100606074
:1008E00000F03EF86168084AC1F30311515CC8404A
:1008F0000649086006480068FFF7F8FE0020C2E7D6
:100900000020024000100240524600080C00002067
:100910000400002001480068704700000C0000201F
:100920000448054900684968044AC1F30221515C42
:10093000C84070470C0000200010024062460008CA
:100940000448054900684968044AC1F3C221515C62
:10095000C84070470C0000200010024062460008AA
:100960000E4A51680E4801F00C03042B11D0082BDD
:100970000FD10C48C1F38343C903C05C0AD5516849
:10098000084AC1F34041921E515C054A5043B0FBF6
:10099000F1F07047044948437047000000100240DE
:1009A00000127A004246000800093D002DE9F84F88
:1009B000040070D02078C04DC00749D06868C0F3EB
:1009C0008100012807D06868C0F38100022809D19E
:1009D0006868C00306D52868800339D56068002898
:1009E000E7D035E06068B0F5803F0BD010B1B0F5CE
:1009F000A02F11D0286820F480302860286820F4C7
:100A0000802002E0286840F480302860606890B15F
:100A1000FFF754FE06460AE0286840F4802028606C
:100A2000F0E700BFFFF74AFE801B642873D82868F0
:100A30008003F7D50CE0FFF741FE064605E000BF56
:100A4000FFF73CFE801B6428F0D828688003F7D4A9
:100A500020789A4E80074FF001094FF0000839D5F1
:100A6000686810F00C0F07D06868C0F38100022896
:100A700009D16868C00306D42868800714D52069A6
:100A8000012808D110E02069B0B1C6F80090FFF746
:100A900015FE074605E00AE1FFF710FEC01B02281D
:100AA000C4D828688007F7D52868616920F0F80065
:100AB00040EAC10028600DE0C6F80080FFF7FEFDA7
:100AC000074604E0FFF7FAFDC01B022823D8286878
:100AD0008007F7D4207800072CD57948A169D9B1CF
:100AE000C0F80090FFF7EAFD074604E0FFF7E6FDD7
:100AF000C01B02280FD8686A8007F7D571484FF4E9
:100B0000FA510068B0FBF1F0009000BF0098411E60
:100B10000091FAD20EE080E0C0F80080FFF7CEFD31
:100B2000074604E0FFF7CAFDC01B022875D8686AB3
:100B30008007F7D42078400760D5E8690027C00017
:100B400008D4E86940F08050E861E869012700F0C6
:100B5000805000905C480168C90513D40168834641
:100B600041F480710160FFF7A9FD824606E000BFF5
:100B7000FFF7A4FDA0EB0A0064284ED8DBF80000C4
:100B8000C005F5D5E06801280AD008B1052813D0C2
:100B9000286A20F001002862286A20F0040002E0A0
:100BA000286A40F001002862E06841F2883B98B171
:100BB000FFF784FD82460BE0286A40F004002862BB
:100BC000EEE700BFFFF77AFDA0EB0A0159455AD8BE
:100BD000286A8007F6D50CE0FFF770FD824605E035
:100BE000FFF76CFDA0EB0A0159454CD8286A800735
:100BF000F6D41FB1E86920F08050E861E06988B35D
:100C00006968C1F38101022944D00228C6F86080D6
:100C100004D0FFF753FD044638E034E0FFF74EFD03
:100C2000074604E0FFF74AFDC01B02282BD82868BE
:100C30008001F7D4206AB0F5803F05D16868A168CB
:100C400020F4003008436860D4E90801084369686B
:100C500021F4741108436860C6F86090FFF72EFD18
:100C6000044606E025E000BFFFF728FD001B022830
:100C700009D828688001F7D51BE000BFFFF71EFDEB
:100C8000001B022802D90320BDE8F88F28688001E4
:100C9000F4D40EE00128F7D06868226A00F48031AD
:100CA000914204D1616A00F47010884201D00120A1
:100CB000EAE70020E8E7000000100240000042429E
:100CC000800442420C0000200070004010B5401E1D
:100CD000B0F1807F01D3012010BD4FF0E0246061AE
:100CE0000F21601703F01CFB0020A061072020618A
:100CF000002010BD70477047F8B5016804460868C9
:100D0000CA684B6910F00F0F4FF0000559D003F07F
:100D1000010602F49077374365D0C10705D0D105AD
:100D200003D5616C41F001016164410705D5D90724
:100D300003D0616C41F002016164810705D5D907D8
:100D400003D0616C41F004016164010707D502F032
:100D50002001314303D0616C41F008016164616C92
:100D600000293AD0800604D5900602D5204603F02B
:100D700009FA20684069616CC0F38010090700D44B
:100D800060B3204603F0D7F920684069400621D5BA
:100D90002068143050E8001F21F0400140E80012A4
:100DA000002AF5D1E06BA8B16D494163E06BFFF714
:100DB00043FB002811D0E06B416B01B0BDE8F0406F
:100DC000084783060FD593060DD52046BDE8F840A9
:100DD00003F0D8B92046FFF78EFFF8BD2046FFF795
:100DE0008AFF6564F8BD266B2023012E7CD1C606E0
:100DF0007AD5D60678D508684868009048694FF0DB
:100E00000206400640D5E16B086840680004000C0B
:100E1000E8D0A28D8242E5D9E085886920282DD0CE
:100E200020680C3050E8001F21F4807140E8001267
:100E3000002AF5D12068143050E8001F21F001018C
:100E400040E80012002AF5D12068143050E8001F55
:100E500021F0400140E80012002AF5D184F8423028
:100E6000256320680C3050E8001F21F0100140E895
:100E70000012002AF5D1E06BFFF7BAFA6663A08D85
:100E8000E18D401A81B22AE0A08DE18D401A81B235
:100E9000E08D0028A6D00029A4D022680C3252E8A8
:100EA000000F20F4907042E80007002FF5D1206871
:100EB000143050E8002F22F0010240E80027002FF4
:100EC000F5D184F84230256320680C3050E8002FBB
:100ED00022F0100240E80023002BF5D16663204683
:100EE000FFF708FFF8BDFFE705062BD5150629D546
:100EF00094F841002128F5D1A068B0F5805F01D1B8
:100F00002069B0B1206A411C2162216800784860E4
:100F1000E08C401E0004000CE084E3D12068C1682E
:100F200021F08001C1602068C16841F04001C160CA
:100F3000D8E7206A0088C0F308004860206A801C57
:100F40002062E5E74006CDD55006CBD5CA682046DD
:100F500022F04002CA6084F8413000F076F8C1E720
:100F60002741000870B5040004D094F84100002522
:100F700010B106E0012070BD84F84050204600F01A
:100F800023F8242084F841002068C16821F400512E
:100F9000C160204603F058F92068016921F49041AE
:100FA00001612068416921F02A0141612068C1681E
:100FB00041F40051C1606564202084F8410084F848
:100FC00042006563002070BD30B585B000240094F8
:100FD0000194029403940068184988422CD118485F
:100FE000816941F480418161816901F4804104910A
:100FF000816941F0040181618069124D00F00400B3
:1010000004904FF4007000900220019003200390A0
:1010100069462846FFF75CFA2815CDE900046946C1
:1010200028460294FFF754FA002211462520FFF7C4
:10103000A9FB2520FFF798FB05B030BD0038014023
:10104000001002400008014070477047FEE70000B2
:1010500070B586B000241E48009401940294039455
:10106000816941F010018161816901F010010491F1
:10107000816941F020018161816901F020010491C1
:10108000816941F0040181618069124D00F0040022
:10109000049000224FF400512846FFF709FB0E4E42
:1010A000002208213046FFF703FB42F208000090BF
:1010B0000120CDE901040220039069462846FFF78C
:1010C00007FA69463046FFF703FA06B070BD000024
:1010D0000010024000100140000801400C4810B50B
:1010E0000A4901604FF4E1314160002181600C2226
:1010F000C160C0E904128161C161FFF733FF0028BC
:1011000003D0BDE81040FFF772B910BD00380140B0
:10111000A8080020FEE70A46002100F023B80000DE
:101120000D480E490246C0E9001200218160C160ED
:10113000016141618161C16101620163C16241621A
:1011400000F148018163C1634FF4A051016441641F
:1011500003480260704700000009002048454150E4
:101160002C00002010B5002A21D000281FD0002418
:101170004FEA04035B1C41EA0424042BFAD310F069
:10118000030305D10BE000BF521E00F8011B5B1CDE
:10119000002A0CD0042BF7D301E010C0121F042A40
:1011A000FBD202E000F8011B521E002AFAD110BD4A
:1011B000FEE7704702480068002800D000477047EB
:1011C0004000002010B5044600F0BEF8464800215B
:1011D0000A22017045480170454801704548016088
:1011E0004548016045480170454801704548017017
:1011F0004548016045480160454801604548017027
:1012000045480068B0FBF2F0444A1060444A106858
:1012100030B14448006818B1126802C0521EFCD1B7
:101220004148016041480160414801604148016016
:1012300041480160414801604148016041480170F6
:1012400001F0E0FC01F092FD204600F0F1FF208863
:10125000002847D1204601F0E5FA2088002841D136
:10126000204601F0EBFA208800283BD1204601F00F
:101270007FFB2088002835D1204601F0E9FC20883A
:1012800000282FD1204601F099FE2088002829D17E
:10129000204602F005F92088002823D1204601F0DD
:1012A00035FA208800281DD1204601F0CDF820888D
:1012B000002817D1204602F05FFD2088002811D1B8
:1012C000204602F04BF8208800280BD1204602F07F
:1012D000A7FD2088002805D100F0A8FFBDE8104038
:1012E000FFF767BF10BD0000540000205C00002025
:1012F000A4000020F8000020FC0000208A0000204C
:101300008B0000208C000020980000209C00002012
:10131000A0000020AC000020B4460008A800002077
:10132000904600088C460008340000203800002059
:101330003C00002040000020440000204800002025
:101340004C000020DA00002030B5094B0020094A8B
:101350000446196801E010C1401C1568A842FAD380
:101360001868054900EB8500001F086030BD0000CB
:101370008C46000890460008300000201A4810B53E
:10138000007801282FD1FEF7D3FE184A04461178C1
:1013900029B1491E11F0FF00107022D103E0BDE811
:1013A0001040FEF7C9BE12480078D0B901F018FC11
:1013B00010490870104900EB400051F820100F4808
:1013C00001600F48006881420BD051F8900F401C1B
:1013D00008600C480168491C01600B494FF08050BF
:1013E00008602046DBE710BD5C00002054000020B0
:1013F000A40000208B000020E41E0020FC00002040
:10140000F8000020D000002004ED00E0164810B5E0
:101410000078002826D115480078002822D1FEF750
:1014200087FE044601F0DCFB11490870114900EB0E
:10143000400051F8200010490860104909688842AE
:101440000BD050F8901F491C01600D480168491CE1
:1014500001600C494FF0805008602046BDE8104004
:10146000FEF76ABE10BD000054000020A40000205A
:101470008B000020E41E0020FC000020F80000206B
:10148000D000002004ED00E070B50446124800785A
:1014900010B146F662501DE010480078012802D0D5
:1014A00045F6896016E00E4D2878FA2802D345F2F9
:1014B00009200FE0FEF73CFE0646FEF737FF2878CE
:1014C000401C287001F01AFDFEF740FF3046FEF781
:1014D00033FE0020208070BD540000205C000020FE
:1014E000A40000202DE9F04116460C460546FEF703
:1014F0001FFE0746FEF71AFF29460D480025012961
:1015000001D0057001E0012101700A480CB10460AE
:1015100005E009490A220968B1FBF2F10160FEF712
:1015200015FF3846FEF708FE3580BDE8F081000063
:10153000AC000020A8000020B446000870B50446A6
:101540001848007810B146F6655029E01648007832
:10155000012802D045F6896022E0144D287890B128
:10156000FEF7E6FD0646FEF7E1FE2878401E10F085
:10157000FF0028700AD0FEF7E9FE3046FEF7DCFDDA
:1015800046F663500CE046F6645009E001F0C4FCF6
:10159000FEF7DCFE3046FEF7CFFDFFF737FF0020F9
:1015A000208070BD540000205C000020A4000020BA
:1015B00070B50F4D0446287818B145F68A60208032
:1015C00070BD01F00DFB0B4908700B4908700B4909
:1015D00000EB400051F82000094908600949086003
:1015E00001202870FEF7DEFD43F69920E7E70000B2
:1015F0005C0000208B0000208A000020E41E0020F8
:10160000FC000020F80000202DE9F0410646FEF71E
:101610008FFD0546FEF78AFE2E48002404602E4802
:1016200004802E4804802E4804602E4804602E4812
:1016300004602E4804602E4804602E480481FEF7A2
:1016400085FE2846FEF778FDFEF772FD0746FEF799
:101650006DFE2948056818E0FEF76AFD0746FEF7AB
:1016600065FEC5F8B440C5F8B84045F8784F2C631E
:10167000AC61AC82EC826C62AC62FEF7B1FE45F804
:10168000200FA5F134008481AD6AFEF75FFE384675
:10169000FEF752FD002DDFD1FEF74AFD0746FEF7AB
:1016A00045FE1648056806E0FEF742FD0746FEF7D0
:1016B0003DFEAC85AD69FEF749FE3846FEF73CFDC0
:1016C000002DF1D102F072FA02F078FC3480BDE80E
:1016D000F0810000700000206A000020BA000020A5
:1016E000CC000020E0000020E8000020580000208E
:1016F0009C000020D81E0020D40000209000002074
:10170000F8B504466946244800F0A4FBBDF8000083
:1017100058BB6A460021022000F0FAFBBDF8000029
:1017200018BBFEF705FD0746FEF700FE1B4E002521
:101730003560FEF70BFE3846FEF7FEFC18491948E7
:101740000A6803689A4202D9B2FBF3F010B90A2181
:10175000B2FBF1F06A46002100F0DAFB69460E4860
:1017600000F0F2F9BDF8000008B12080F8BDFEF7E6
:10177000DFFC0746FEF7DAFD0B480C4905603068D0
:1017800008600B4901200870FEF7E0FD3846FEF7BF
:10179000D3FC2580F8BD0000F4210020BC0000200F
:1017A000B4460008A0460008CC000020C00000207D
:1017B000C800002002480068002800D00047704799
:1017C000440000202DE9FF4F83B004467248DDE954
:1017D0001785DDE910960078DDF854A0139F10B14D
:1017E00047F24A102AE04CB1059850B166B16B48F7
:1017F000006887420BD246F630601FE047F2AD101A
:101800001CE047F24F1019E046F62F6016E01298E0
:10181000B84202D346F6316010E046F27320B9F1C7
:10182000200F0BD25FEA090103D0B9F11F0F02D0DC
:1018300008E05B4900E05B498C4203D0288007B098
:10184000BDE8F08F204601F03BFE4FF0000BA5F8FD
:1018500000B05FEAC8700AD05FEA887007D53046EA
:1018600000215A4601E004C0491CB942FBD312983A
:10187000CDE9007806EB8005DDE905012B4632460F
:1018800000F0B0FA0599A1620699E162049921621B
:1018900084F83790C4F854A0A56020605FEA0A007D
:1018A00024D0A0651698A76366626060A4F83C80A7
:1018B0000020594604EB8002401CD16710F0FF0065
:1018C000F8D004F16400149901F006F8204600F005
:1018D00075F8FEF72DFC0646FEF728FD324D2878F8
:1018E000401CC0B22870012803D004E02F480068D3
:1018F000D7E701F003FBFEF729FD3046FEF71CFC9D
:1019000094F8370001F084F9204601F075FA20467A
:1019100001F098FD26490888401C08802548007879
:10192000012821D0FEF704FC0446FEF7FFFC2878CE
:10193000401E10F0FF0129700ED101F0EDFA1E4893
:10194000008848B1FEF702FD2046FEF7F5FB07B020
:10195000BDE8F04F01F0AEBAFEF7F8FC07B0204644
:10196000BDE8F04FFEF7E8BBFEF7E2FB0446FEF7EA
:10197000DDFC2878401E10F0FF01297001D101F034
:10198000CBFAFEF7E3FC2046FEF7D6FB07B0BDE836
:10199000F04FFFF73BBD000054000020B0460008A8
:1019A000101E0020481D0020A4000020A8000020D8
:1019B000D80000205C00002068000020024909686F
:1019C000002900D008477047340000202DE9F0417D
:1019D000044652480E46007810B147F24E100AE015
:1019E0004F48844202D147F24C1004E04D488442F3
:1019F00004D147F24D100880BDE8F0815CB9FEF7D4
:101A000097FB0546FEF792FC47480468FEF79EFCEC
:101A10002846FEF791FBFEF78BFB0746FEF786FC98
:101A2000424D2878401CC0B22870012801D101F035
:101A300065FAFEF78BFC3846FEF77EFB94F836001D
:101A400008283DD2DFE800F004080C0C1C080C0C40
:101A5000204601F005FA13E0204602F08BF80FE073
:101A6000204602F087F894F83400072808D2DFE80F
:101A700000F00704070404040400204601F023F8E2
:101A800004F1640000F00EFF204600F055F82046F7
:101A900001F0EAFC26490888401E0880204601F033
:101AA0000FFDFF2084F83600FEF742FB0446FEF7E8
:101AB0003DFC2878401E10F0FF00287021D022E065
:101AC000FEF736FB0446FEF731FC2878401E10F086
:101AD000FF0028700CD101F01FFA1648008838B1B9
:101AE000FEF734FC2046FEF727FB01F0E3F904E0A3
:101AF000FEF72CFC2046FEF71FFB46F62D603080DB
:101B00007AE701F009FAFEF721FC2046FEF714FB04
:101B100000203080BDE8F041FFF778BC5400002081
:101B2000481D0020101E0020F8000020A400002006
:101B3000D80000206800002002490968002900D070
:101B400008477047380000207FB50D460446FEF771
:101B5000EFFA0646FEF7EAFB1CB11448006884421F
:101B600008D1FEF7F3FB3046FEF7E6FA47F25710CE
:101B700028807FBDFEF7EAFB3046FEF7DDFA0C4811
:101B8000007858B10020CDE90205009003460246D6
:101B900001902146074800F08BFC7FBD04B0294628
:101BA0002046BDE8704001F09FBD0000F800002015
:101BB000540000205452455302490968002900D0BE
:101BC000084770473C0000202DE9F0478146574800
:101BD00014461E460078884610B146F2AE1006E064
:101BE000080006D0B1F5004F03D045F625601880F7
:101BF0003DE0002704B12760FEF79AFA8246FEF71F
:101C000095FB4B4D2968486CD8B1401E804648640E
:101C10000CB1086C2060FEF7E3FB29680A6C801A9F
:101C2000C1F8A400D1F8A820824201D2C1F8A800CE
:101C3000FEF78CFB5046FEF77FFA37804046BDE842
:101C4000F0875FEA084007D5FEF780FB5046FEF7B5
:101C500073FA46F2B01009E03648017849B1FEF750
:101C600075FB5046FEF768FA46F663503080002058
:101C7000E5E701218046017001F040F9FEF766FBBF
:101C80005046FEF759FA00214B460722084600F05D
:101C90007BFEFEF74DFA8146FEF748FB98F80010F0
:101CA000491E11F0FF0188F8001001D101F034F94C
:101CB000FEF74CFB4846FEF73FFAFFF7A7FBFEF79F
:101CC00037FA8046FEF732FB286890F8351031B1BC
:101CD000012916D003291AD046F62E601BE074B1F4
:101CE000006C2060FEF77CFB29680A6C801AC1F842
:101CF000A400D1F8A820824201D2C1F8A800378000
:101D00000AE00CB1006C206046F2A91003E004B1B7
:101D1000276047F2D92030802868446CFEF716FB14
:101D20004046FEF709FA204689E7000054000020EB
:101D3000F8000020A40000202DE9F04705462748C0
:101D400016460F4600781C4610B147F259100AE0BB
:101D500046F2D5203FB136B1FEF7EAF98146FEF7EB
:101D6000E5FA1DB104E01880BDE8F0871C4805685D
:101D70004FF00008286858B195F83C00C00713D010
:101D8000FEF7E4FA4846FEF7D7F90020696A1AE040
:101D9000FEF7DCFA4846FEF7CFF9C7F8008047F2B5
:101DA0005210C6F800800AE0FEF7D0FA4846FEF767
:101DB000C3F9C7F8008047F25410C6F800802080AD
:101DC000D2E7401C091D0A68002AFAD03860A96BC6
:101DD000081A3060A4F80080C6E700005400002014
:101DE000F800002010B5029C02EB84024FF08074D2
:101DF00042E90204164842F80C0C4FF0123042F847
:101E0000100CA2F114004FF0023240E903134FF01E
:101E1000113140F8101CD10040F8141C4FF009316A
:101E200040F8181C910040F81C1C4FF007314FF08F
:101E3000033440F8201C610040F8241C4FF00531A9
:101E400040F8281D5100C0E9092440F8041D10BDC8
:101E5000E93700081FB5104A904202D147F25B10E3
:101E600004E00E4A904203D147F25C1008801FBD87
:101E70000B4A127852B10022CDE9022101460092AC
:101E800013460192074800F013FB1FBD04B0BDE8E4
:101E9000104001F079BD0000481D0020101E0020F8
:101EA000540000205453555370B51548006800B1D4
:101EB0008047FEF795FA134C134A21681268914245
:101EC00007D0D1F89830C31A41F8943F8D682B445D
:101ED0008B60C2F89800FEF70BFA2168D1F8B420A5
:101EE000824201D2C1F8B400084AD1F8B830106873
:101EF000834201D2C1F8B8000020106070BD00001C
:101F000048000020F8000020FC000020A000002075
:101F10002DE9F041804636480F461546007810B14D
:101F200047F2752020E0334C207810B146F663501C
:101F30001AE047B1022F06D0042F07D0082F02D095
:101F400045F6256010E0B8F1000F0BD0FEF7F0F871
:101F50000646FEF7EBF92078401CC0B2207001283D
:101F600005D006E047F27E201080BDE8F08100F049
:101F7000C5FFFEF7EBF93046FEF7DEF81E4E0121F5
:101F80002B4630683A4680F83610414601F086FD0F
:101F9000288898B1FEF7CCF80546FEF7C7F92078F7
:101FA000401E10F0FF01217001D100F0B5FFFEF7D7
:101FB000CDF92846BDE8F041FEF7BEB8306800F024
:101FC0004FFFFEF7B5F80646FEF7B0F92078401E41
:101FD00010F0FF00207001D100F09EFFFEF7B6F96F
:101FE0003046FEF7A9F8FFF711FA00202880BCE779
:101FF00054000020A4000020F80000202DE9F04744
:102000005C4EDDE90854367816B147F27520ABE036
:10201000DFF864A19AF8006016B146F66350A3E0B9
:1020200015F00E0647F27E2945F6256705D0022EEB
:1020300003D0042E06D0082E07D11BB912B909B956
:1020400000287DD035F01E0C02D02780BDE8F08737
:10205000C5F3001547F2792C47F278284FF47A77C8
:102060003DB142F20F75A94212D900BFA4F800C0D9
:10207000ECE7BB4202D347F27B2075E03B2A02D952
:1020800047F27A2070E03B29F0D8632802D804E0B8
:10209000B84202D3A4F80080D8E7384D4FF4FA7C58
:1020A000C1EB01112D68BCFBF5FC63446B43B3FB32
:1020B000F7F34FF46167784300EB8100104400FBB5
:1020C0000537EFB3FEF734F88046FEF72FF99AF89C
:1020D00000005546401CC0B28AF80000012801D11A
:1020E00000F00CFFFEF732F94046FEF725F8DFF866
:1020F000908001212346D8F80000324680F836103F
:10210000394601F0CBFC208898B1FEF711F804465F
:10211000FEF70CF92878401E10F0FF01297001D15C
:1021200000F0FAFEFEF712F92046BDE8F047FEF790
:1021300003B8D8F8000000F093FEFDF7F9FF00E0C7
:1021400014E00646FEF7F2F82878401E10F0FF0073
:10215000287001D100F0E0FEFEF7F8F83046FDF7F8
:10216000EBFFFFF753F9002020806FE7A4F8009001
:102170006CE7000054000020A4000020B4460008D2
:10218000F800002000B585B000F01CF8FEF728F933
:1021900004AA002103920091CDE9011006480749E5
:1021A000002300781A4600EB400001EB8001044850
:1021B00000F07EF905B000BD8A000020E41E00207A
:1021C0005449434B02480068002800D0004770473C
:1021D0004C00002010B5FDF7ABFF0446FEF7A6F853
:1021E00007490878401C0870FEF7B0F82046FDF754
:1021F000A3FFFFF7C7FFBDE81040FFF7BFB800001F
:10220000540000204FF0E021401E4861064802685B
:1022100022F07F420260086940F005000861086909
:1022200040F002000861704720ED00E070470000B8
:10223000034A00211160034A1180018070470000A9
:1022400074000020780000202DE9F05F9A46904647
:102250000D4604460A9FFDF76BFF8346FEF766F8BE
:102260005FEA080024D0012807D0B0F5004F1FD046
:102270006FF4004118EB010F12D1206A30EA05001B
:10228000C4E9080A208A04F108064FF0000990B159
:102290004D4D2878401CC0B22870012815D016E09A
:1022A000FEF754F85846FDF747FF45F625606CE009
:1022B000206A2843E4E7FEF749F85846FDF73CFF5B
:1022C000A7F80090206ABDE8F09F00F017FEFEF727
:1022D0003DF85846FDF730FF366833E090F8881037
:1022E000766801F00F0101291BD0022921D00429B1
:1022F0000DD0082910D0FDF71BFF0446FEF716F895
:102300002878401E10F0FF0028702AD036E0216A9D
:10231000D0F88020114009E0216AD0F880201140D7
:102320000BE0D0F88010236A0A4699438A4205D010
:1023300007E0D0F88010226A914311B1524600F0B4
:1023400047F816B1B0680028C8D1FDF7F1FE06467F
:10235000FDF7ECFF2878401E10F0FF00287017D022
:1023600018E000F0D9FD1948008838B1FDF7EEFFFC
:102370002046FDF7E1FE00F09DFD04E0FDF7E6FFDD
:102380002046FDF7D9FE43F6FF20388000209AE76B
:1023900000F0C2FDFDF7DAFF3046FDF7CDFE5FEA43
:1023A000084001D4FFF732F8FDF7C2FE0546FDF7FD
:1023B000BDFF246AFDF7CAFF2846FDF7BDFEA7F85A
:1023C000009020467FE70000A40000206800002065
:1023D00070B50025C0F8841080F8355080F834506E
:1023E0000446026490F8360008280ED2DFE800F0B8
:1023F0000D0D04040D0D0A0A204601F067F984F85A
:10240000365002E0042084F836002046BDE87040D3
:1024100000F059BB0A4C0B4DFDF78AFE0646FDF74E
:1024200085FF2068401C20602868401C2860FDF75C
:102430008DFF3046FDF780FEFEF7BCFEECE70000A6
:1024400050000020BC00002000B50E4A89B00021D9
:1024500011600B2205910691CDE907200A480B4A2D
:102460000B4B006812681B680292CDE903011F2024
:10247000CDE900030023074A07A10C48FFF7A2F9A2
:1024800009B000BD500000207446000870460008E6
:102490006C4600081524000875432F4F532D4949F9
:1024A000492049646C65205461736B00481D00200D
:1024B0002DE9F84F1D46DDE90CB4DDE90AA9164601
:1024C0000F468046FDF734FE0090FDF72FFF1D48B4
:1024D0001D4A0188128891422DD2491C89B201807F
:1024E0001A4802888A4200D2018019490868C0F857
:1024F0000080C0E902760582C0F814A0A0F8189008
:10250000C0F81CB0406808601248012101811249DE
:1025100001604160002000F07BFB1048007808B1AA
:102520000F49087000202080FDF710FF0098BDE8DB
:10253000F84FFDF701BE0B490888401C088044F2A3
:102540005360F0E7680000207C4600086A00002025
:1025500060000020E41E0020101E00208A000020E1
:102560008C0000206C0000203EB5374C374B02A990
:1025700020680268D51A9A4245D015DC344BD2182F
:102580002DD0344BD21822D0334BD21832D0334B0B
:10259000DA4208D1C269CDE90021038B028AC16801
:1025A000806800F0F1FF3EBD2D4AAA181ED02D4BC9
:1025B000D21824D02C4BDA42F5D1C269CDE90021E2
:1025C000038B028AC168806800F04EFB3EBD00911B
:1025D000028BC36941698068FFF736FE3EBD018BFF
:1025E000C269806802AB00F0F5FC3EBD806801F076
:1025F0007BF83EBD018BC269806802AB21E0806838
:1026000001F0C2F93EBD19481949007800EB4000BD
:1026100001EB800000F09EFC206802AB0021C26943
:10262000144801F0EDF814480168491E0160E9D131
:10263000124909680160FDF7D3FE024602AB002192
:102640000F4801F0DDF83EBD640000205449434BC3
:10265000ADBAB2BE0DF90BFAF2F8F7FF0006F6FFBD
:1026600000F7FDF700FFEFFF03FE0FFE8C000020D8
:10267000E41E00202C210020F4000020F0000020A7
:10268000F42100201D4D1E4C1E4E00BFFDF750FDD5
:102690000746FDF74BFE208808B3FDF757FE384686
:1026A000FDF74AFDFDF79CFE0746FFF75DFFFDF7CE
:1026B00097FE2968C01B814200D22860FDF738FDD3
:1026C0000746FDF733FE3068406830602088401EC2
:1026D0002080FDF73BFE3846FDF72EFDD6E70A4980
:1026E000002008810860486000F0A2FAFDF72EFE85
:1026F0003846FDF721FDFEF789FEC5E77000002092
:102700006800002064000020E41E0020F0B52F497E
:102710002F4D89B000220A80296831B12D4E3188B1
:10272000022905D244F2546135E044F2526132E0AC
:1027300029490023294F0A60296801F1200410E08B
:1027400041F8087B5B1C41F8082B9BB241F8042C34
:1027500021F8102B41F80C2C21F8082C41F81C4CC6
:102760002034B6F800C06345EAD32B6841F81C3C1E
:102770001B490B601B490B601B490A801B490A80DF
:102780001B490B6853B11B4B1B4D1C682D68AC4299
:1027900007D244F25661018009B0F0BD44F25561A0
:1027A000F9E7032405920692CDE907401868134B18
:1027B00009681B68CDE903020092CDE901130023EB
:1027C0000F4A10A11648FEF7FDFFE5E76C00002058
:1027D000784600087C460008700000204E4F4E45A9
:1027E0006000002064000020680000206A000020D3
:1027F0008046000888460008B04600088446000865
:102800008526000875432F4F532D494949204953C8
:1028100052205175657565205461736B000000008E
:10282000101E0020034A00211160034A118001801C
:10283000704700007C00002080000020F0B5164C9E
:10284000216859B1154E318859B189B2491E2268A3
:102850008FB2002502F1100329460EE045F21E71E9
:1028600018E045F21D7115E0E2E802316D1C22F816
:10287000081BADB242F8041C1033BD42F4D3116002
:1028800051601181D160064A2368136033889380B8
:10289000D18011810180F0BD98460008944600085F
:1028A000D81E002010B5428992B10A4903680C680D
:1028B0001C6043680B60CB8844891B1BCB808B88D2
:1028C000448923448B8000214181818101604160E2
:1028D000104610BDD81E0020018100214181818158
:1028E0000160416070470000F0B54489DDE905E70B
:1028F0000589AC4202D346F293501EE01B4DAE88D0
:10290000CEB12C68761ED4F800C0C5F800C0AE80E9
:10291000EE88761CB6B2EE80B5F808C0B44500D299
:102920002E814689002556B1DB060ED403681C6053
:10293000046025600CE045F21D703880F0BD046035
:10294000012344604381256005E0436823604460BF
:1029500043895B1C4381868943899E4200D28381DF
:1029600061602281C4F80CE03D80F0BDD81E0020DB
:10297000034A00211160034A118001807047000062
:1029800084000020880000202DE9F041114D074609
:102990000C4628680026194680F8342080F83560F7
:1029A00000F03AFD64B1FC6004F1080601223946EA
:1029B000286800F011F83946304600F057F802E078
:1029C0002868C687066320462968BDE8F04100F004
:1029D0001BB80000F800002010B5C2870024234671
:1029E00001630EE04B6041F8103B641C41F8103B62
:1029F000A4B241F80C3C21F8083C41F8043C41F8F1
:102A0000180C9442EED310BD38B14268C1F8C4200E
:102A100081688968096AC161704791F834000228A9
:102A200003D0072803D004A002E004A000E005A022
:102A3000C1F8C40070470000200000005461736BAF
:102A4000205100005461736B2053656D000000003D
:102A500005A2C1F8C420816811B18968096A00E043
:102A600001A1C161704700002000000030B58A68F4
:102A7000002392F8374002891AB1521C0281026881
:102A80000BE0012202814B600B60016014E095684D
:102A900095F83750A54203D85268002AF7D107E0CD
:102AA00032B1146854B1C1E900426160116030BDB7
:102AB0004B6042680A605160416030BD1160C1E9FD
:102AC0000032016030BD70B50646C48F056B07E06B
:102AD000E8682946083000F009F8641EA4B22035E1
:102AE000002CF5D10020F087306370BD10B502894D
:102AF0000023012A0BD00A6862B14C6874B154609B
:102B000022600289521E02814B600B6010BD03607F
:102B10004360F6E74A6813600260F2E75360426080
:102B2000EFE7F8B50C46064691F8361000250698F2
:102B300008293BD2DFE801F03A3A04043A3A20206F
:102B400094F83410032911D0E265A4F860302064B1
:102B500036B12046FFF7B7FF21463046FFF778FF32
:102B6000204600F0B3FD84F836501BE0009021466B
:102B7000304600F022F8EBE794F83410032916D021
:102B8000E265A4F860302064204600F0F3FF36B11F
:102B90002046FFF798FF21463046FFF759FF0420F3
:102BA00084F8360084F8355084F83450F8BD00902D
:102BB0002146304600F001F8E6E770B50C6B049D45
:102BC000C98F0AE0E668864204D1C4E9040223837F
:102BD000E56170BD491E89B220340029F2D170BD73
:102BE00010B50024064802E02034E4B2001D01685C
:102BF0000029F9D00846FDF7A6FA2044C0B210BD5E
:102C000000010020014900200860704700010020F9
:102C100000F01F0241090120C2F11F029040034A47
:102C200052F82130034342F8213070470001002060
:102C300000F01F0241090120C2F11F029040034A27
:102C400052F82130834342F82130704700010020C0
:102C5000034A00211160034A11800180704700007F
:102C600090000020940000202DE9FF4F83B01F4604
:102C7000DDE9109A93460646FDF75AFA0546FDF738
:102C800055FB384C2078401CC0B22070012801D17F
:102C900000F034F9FDF75AFB2846FDF74DFA358A66
:102CA00006F108001DB1B90530D500683CE0F80612
:102CB00001D4002300E01023CDE9009A5A4606F122
:102CC00020000499FFF710FEFDF732FA0546FDF7E4
:102CD0002DFB2078401E10F0FF0121700ED100F076
:102CE0001BF92148008848B1FDF730FB2846FDF765
:102CF00023FA07B0BDE8F04F00F0DCB8FDF726FB83
:102D000007B02846BDE8F04FFDF716BA0068012568
:102D10005B46D0E90181CDF800903046049AFFF778
:102D200000FF6D1E4046ADB2002DF1D1FDF700FA57
:102D30000546FDF7FBFA2078401E10F0FF002070DA
:102D400001D100F0E9F8FDF701FB2846FDF7F4F9A1
:102D5000380401D4FEF75AFB0021AAF8001007B08E
:102D6000BDE8F08FA4000020680000200020074B81
:102D7000014600BF00EB400203EB8202401C1181C0
:102D80001160C0B251602028F4D37047E41E0020C7
:102D900010B5044690F83700FFF73AFF074994F85A
:102DA000370009788842204603D1BDE8104000F082
:102DB00023B8BDE8104000F003B800008A000020EE
:102DC00090F837100B4A01EB410102EB8101002220
:102DD0000B8943B15B1C0B810B68C0E903320A68A5
:102DE00010610860704701230B81C26002610860B6
:102DF00048607047E41E002090F837100A4A01EB43
:102E0000410102EB810100220B893BB15B1C0B816C
:102E1000C2604A680261D0604860704701230B813C
:102E2000C26002610860F7E7E41E002010B5028965
:102E3000002A14D0012A12D00021022A07D0D0E99A
:102E40000024D3681961C2E90314E26005E0D0E907
:102E50000023C2E90313C3E90321C0E9003210BD16
:102E600070B5054690F83700114900EB400001EBC2
:102E70008001D5E90302002442B10B895B1E0B815E
:102E8000D06090B102612C61EC6070BD28B10A89FC
:102E9000521E0A8104610860F5E70C810C604C60E9
:102EA00095F83700FFF7C4FEEDE74A60EBE7000056
:102EB000E41E002010B5FDF73BF90B4A002111700C
:102EC0000B4A0A49116051F8902F521C0A600949B7
:102ED0000A68521C0A60084A4FF080511160BDE830
:102EE0001040FDF729B900008B000020101E0020C3
:102EF000FC000020D000002004ED00E0044810B5E4
:102F00000078012803D1FDF76BFA0249086010BD73
:102F1000A4000020980000200A4810B5007800287E
:102F20000ED1FDF75DFA08490968401A07490A6899
:102F3000824200D2086006490A68824200D20860D4
:102F400010BD0000A4000020980000209C0000207C
:102F5000A000002070B5044614480078012824D150
:102F6000FDF7E6F80546FDF7E1F92168B1B1104833
:102F7000814213D08A6D12B1521E8A650ED120890A
:102F800002280BD30B48007840B92046FFF74EFFCC
:102F90002068416D09B9084909688165FDF7D6F9CE
:102FA0002846BDE87040FDF7C7B870BDAC000020F2
:102FB000481D0020A4000020A8000020034A002192
:102FC0001160034A1180018070470000B0000020AA
:102FD000B40000202DE9F84F1E469046894604466D
:102FE000FDF7A6F80090FDF7A1F9208A04F1080783
:102FF0004FF0000B50B1DFF8BCA09AF80010491C4C
:10300000C9B28AF8001001291AD01BE0256A681C91
:103010000CD06D1CC4E90858FDF798F90098FDF72D
:103020008BF8A6F800B02846BDE8F88FFDF78EF9BA
:103030000098FDF781F846F6C55030800020F3E790
:10304000FFF75CFFFDF782F90098FDF775F85FEA7E
:10305000895002D53D893F680CE03F680125002377
:10306000B9687F681A462046CDF80080FFF759FD01
:103070006D1EADB2002DF2D1246AFDF759F8054658
:10308000FDF754F99AF80000401E10F0FF008AF88E
:10309000000001D1FFF740FFFDF758F92846FDF782
:1030A0004BF85FEA094001D4FEF7B0F9A6F800B08A
:1030B0002046B9E7A40000200EB5964C964E206835
:1030C000450004E028466A460021FEF721FF3078DB
:1030D0000128F7D16846FEF797FA90482268016800
:1030E000914206D90A462168B2FBF1F15FEA010874
:1030F00003D100680A21B0FBF1F8DFF824B2894F50
:1031000042F2107A5FF00006FDF76AF90190FDF7D0
:10311000FFF885490860FDF70BF80546FDF706F94D
:103120008248834C016821600660FDF70FF928464C
:10313000FDF702F87F48236802689A422BD97E483F
:10314000824202D25046012115E07C48824203D2DD
:103150004FF47A700A210EE07948824202D264204C
:10316000014608E07748824203D20A204FF47A7180
:1031700001E001205146B2FBF1F15843B0FBF1F000
:10318000AAEB0000704980B2ABF800000A888242C6
:1031900003D2088001E0ABF800A0FEF70BFB00248F
:1031A000FCF7C6FF8146FDF7C1F83D6842E000BF6D
:1031B000FCF7BEFF0290FDF7B9F8DFF8909199F89F
:1031C0000010491CC9B289F80010012901D1FFF78C
:1031D00095FEFDF7BBF80298FCF7AEFFD5F89C0012
:1031E000C5E92760FCF7A4FF0290FDF79FF899F866
:1031F0000010491E11F0FF0189F800100CD1FFF7F3
:103200008BFE5348008838B1FDF7A0F80298FCF710
:1032100093FFFFF74FFE04E0FDF798F80298FCF7E4
:103220008BFF55F8A00F0444FCF782FF8146FDF7A1
:103230007DF82D6AFDF78AF84846FCF77DFF002DE2
:10324000B6D12CB33C48844202D25546012015E049
:103250003A48844203D24FF47A750A200EE0384887
:10326000844202D26425284608E03648844203D2CC
:103270000A254FF47A7001E001255046B4FBF0F0C6
:103280008146FCF755FF0290FDF750F83C6822E0BC
:1032900000250120F4E700BFD4F8A0006843B0FB8C
:1032A000F9F080B2504500D95046A4F88C00B4F82B
:1032B0008E10814201D2A4F88E0004F1AC026B465C
:1032C000111D2046FEF738FDFCF732FF0290FDF796
:1032D0002DF8D4F8C040FDF739F80298FCF72CFF20
:1032E000002CD9D11B480178012903D1067068460A
:1032F000FEF78AF9FDF774F80199401A16490A6831
:10330000824200D208606A4600214046FEF700FE75
:10331000FAE60000A0460008C8000020B4460008F5
:10332000B8000020D400002058000020BC0000207D
:10333000C4000020C0000020801A060000093D00E3
:10334000005A62020084D717BA000020A4000020AF
:1033500068000020B6000020CC00002030B51D4AD7
:1033600089B0002111601C4A11601C4A11601C4A7E
:1033700011701C4A11701C4A136843B11B4B1C4D41
:103380001C682D68AC4205D246F62C6108E046F672
:103390002B6105E0174C25781F2D04D346F62A61D2
:1033A000018009B030BD032505910691CDE9075094
:1033B00011481B6812680068CDE90120CDE903318E
:1033C0002078009000230D4A0DA11248FEF7FAF96B
:1033D000E7E70000BC000020C4000020C00000207F
:1033E000C8000020B6000020A4460008AC46000833
:1033F000B04600089C460008A8460008B9300008FE
:1034000075432F4F532D49494920537461742054FB
:1034100061736B006420002038B50446022531B189
:103420006B46022200F03AFBBDF8000028B184F898
:1034300036502046FFF714FD38BD032084F83600CF
:10344000F7E70000074B0022C0F8BC20196829B13B
:10345000C0F8C010C1F8BC0018607047C0F8C020A8
:10346000FAE70000D4000020D0E92F2100234AB160
:1034700081B1C2F8C010C1F8BC20C0F8C030C0F89B
:10348000BC307047054A116009B1C1F8BC30C0F8C2
:10349000C0307047C2F8C030F1E70000D40000200F
:1034A000044A00211160044A1180044A116001801D
:1034B00070470000D4000020D8000020D000002079
:1034C00070B50025056085604560C5600561456192
:1034D0000446856129A0C4E907506562A562E562DA
:1034E0002563E5872564E565A4F86050002104F1B3
:1034F0006400FFF7F1F96567A567C4F88050A4F888
:1035000088500020C4F8845004EB8001401CCD6733
:1035100010F0FF00F8D06564C4F8A450C4F8A850B7
:10352000A56384F88A50C4F8B050C4F8AC50A5879D
:103530004FF00040C4E9120525656565A565A4F84E
:103540008C50A4F88E50C4F89050C4F89450343481
:10355000FCF746FFC4E91905C4F88050C4F884504C
:1035600004F8015B202004F8015B04F8015B04F817
:10357000850B04A020C4C4E9005070BD3F546173A2
:103580006B000000200000002DE9FC5F9946DDE99A
:103590000C7692468B460546FCF7CAFD8046FCF742
:1035A000C5FE474C2078401CC0B22070012801D1D4
:1035B000FFF7A4FCFCF7CAFE4046FCF7BDFD0DB9C1
:1035C000404805680020308095F83600DFF8F88024
:1035D000082852D2DFE800F0040426260404262638
:1035E000CDE900764B465246594605F16400FFF797
:1035F0007BF9FCF79DFD0546FCF798FE2078401E00
:1036000010F0FF01217031D1FFF786FCB8F80000FF
:1036100060B3FCF79BFE2846FCF78EFDBDE8FC5F1F
:10362000FFF748BC95F834000228D9D153465A46D2
:10363000294600200097FFF774FAFCF779FD05464C
:10364000FCF774FE2078401E10F0FF01217001D1BC
:10365000FFF762FCFCF77AFE2846FCF76DFD5FEA97
:1036600009402AD4BDE8FC5FFDF7D0BEFCF76EFE32
:103670002846BDE8FC5FFCF75FBDFCF759FD054639
:10368000FCF754FE2078401E10F0FF0020700CD193
:10369000FFF742FCB8F8000038B1FCF757FE2846A7
:1036A000FCF74AFDFFF706FC04E0FCF74FFE284656
:1036B000FCF742FD46F62D603080BDE8FC9F00001F
:1036C000A4000020F80000206800002010B5044687
:1036D00000F050FA94F83600400704D42046BDE8C4
:1036E0001040FFF755BB10BD2DE9F0410D460446D3
:1036F000FCF71EFD0746FCF719FE00262E8094F805
:103700003600082864D2DFE800F0040404040D3910
:103710004955FCF71BFE3846FCF70EFD47F25310E7
:10372000288037E02F4D2878401CC0B2287001282F
:1037300001D1FFF7E3FBFCF709FE3846FCF7FCFC80
:1037400094F88A00401E10F0FF0084F88A0004D12B
:1037500084F836602046FFF7B9FFFCF7E9FC044621
:10376000FCF7E4FD2878401E10F0FF01297001D11C
:10377000FFF7D2FBFCF7EAFD204609E094F88A0047
:10378000401E10F0FF0084F88A001BD101200EE0DB
:10379000FCF7D2FCBDE8F041FDF738BE94F88A0092
:1037A000401E10F0FF0084F88A000BD1022084F83C
:1037B000360007E094F88A00401E10F0FF0084F8FD
:1037C0008A0003D0FCF7C2FD3846E1E70320EEE7AC
:1037D000FCF7BCFD3846FCF7AFFC46F62D602880B0
:1037E000BDE8F081A4000020044808B50068FEF799
:1037F000E3F969460020FEF7E9F808BDF80000206B
:103800002DE9F84F984691468B460646FCF790FC0A
:103810000546FCF78BFD594C2078401CC0B2207047
:10382000012801D1FFF76AFBFCF790FD2846FCF761
:1038300083FC0EB9524806680020524FC6F84090EB
:10384000A8F8000096F8360046F6C55A082872D245
:10385000DFE800F033332F2F33332F2FFCF776FDC3
:103860002846FCF769FCFFF725FB04E0FCF76EFD3A
:103870002846FCF761FCA8F800A00020BDE8F88FFE
:103880006D1C7564FCF754FC0646FCF74FFD207870
:10389000401E10F0FF00207047D1FFF73DFB388835
:1038A000F0B3FCF753FD3046FCF746FCFFF702FB94
:1038B00062E096F83400072813D0756C681CDFD1DD
:1038C000FCF736FC0546FCF731FD2078401E10F071
:1038D000FF002070CAD1FFF71FFB38880028C5D031
:1038E000BCE700231A4631461846CDF80090FFF792
:1038F00018F9756CFCF71CFC0646FCF717FD2078E0
:10390000401E10F0FF00207001D1FFF705FBFCF70F
:103910001DFD3046FCF710FC5FEA0B402CD401E0A3
:1039200003E008E0FDF772FD26E0FCF70FFD3046EE
:10393000FCF702FC20E0FCF7FBFB0546FCF7F6FC7D
:103940002078401E10F0FF0020700BD1FFF7E4FA42
:10395000388838B1FCF7FAFC2846FCF7EDFBFFF796
:10396000A9FA04E0FCF7F2FC2846FCF7E5FB46F672
:103970002D60A8F80000002528467FE7A40000205D
:10398000F8000020680000202DE9F0410D460446B3
:10399000FCF7CEFB0746FCF7C9FC334804B90468C2
:1039A000016832488C4209D1017839B1FCF7CEFC6C
:1039B0003846FCF7C1FB46F6635052E000212980EF
:1039C00094F836100126082944D2DFE801F00431CA
:1039D00033393B3B3B3B05460078401CC0B2287066
:1039E000012801D1FFF78AFAFCF7B0FC3846FCF752
:1039F000A3FB042084F8360084F88A602046FFF791
:103A00002FFAFCF795FB0446FCF790FC2878401E43
:103A100010F0FF01297001D1FFF77EFAFCF796FC48
:103A20004FEA0400FCF788FBBDE8F041FDF7EEBC6F
:103A3000052000E0062084F8360084F88A6005E05E
:103A40000720F8E714F88A0F401C2070FCF77EFC72
:103A50003846E7E7FCF77AFC3846FCF76DFB46F69C
:103A60002D602880BDE8F081F8000020A40000202F
:103A700010B500200146074C074B06E004EBC002DE
:103A8000401C11609180D18080B21A889042F5D399
:103A900010BD00003C340020C8460008F0B5324C90
:103AA00047F27E2625680024042A08D0B1B32E4EA2
:103AB000082A36680E440BD0C0E9136115E04A1B92
:103AC000521E12F5803F2AD8521CC0E913120CE096
:103AD000826C0A44571B7F1E8F4201D2C26400E0F1
:103AE000C664C16C4A1B02658164204AC16C12889D
:103AF000B1FBF2F602FB16111D4A89B202EBC102BC
:103B0000918889B11168F1B1CE6C761B0E65076D95
:103B1000B74212D94E6966B13146F5E7FFE7C46492
:103B20000465C4611E80F0BD4461846101211060A0
:103B30000BE0C0E90541486105E08D6975B1C0E958
:103B40000515686188619188491C9180D58889B282
:103B50008D4200D2D180C2611C80F0BDC0E9051445
:103B600088611060EFE70000DC000020C846000814
:103B70003C34002010B5C269002A15D0002101652F
:103B80001368834204D14369136033B1996104E03F
:103B9000D0E90534636103B19C6141618161C16118
:103BA000C1649088401E908010BD000010B50020B8
:103BB0000446064B064A04E003EBC001401CCC80DF
:103BC00080B211888842F7D310BD00003C34002039
:103BD000C84600082DE9F05FFCF7AAFA0446FCF796
:103BE000A5FB554D2878401CC1B22970012901D18F
:103BF000FFF784F9FCF7AAFB2046FCF79DFAFCF7D7
:103C0000EFFBDFF8388107464D49D8F800004FF048
:103C10000009401CC8F8000009884FF0030AB0FBF7
:103C2000F1F201FB1200474980B24FF0040B51F84A
:103C3000304074B394F836006669082851D2DFE842
:103C400000F05004501150295036E06CD8F80010A4
:103C5000421A2265884246D184F836902046FFF702
:103C600035FD3EE0E06CD8F80010421A226588422B
:103C700039D1C4F85C90A4F86090FCF7B1FB2064E3
:103C80002046FEF720FF2046FFF720FD84F83690FF
:103C900023E028E0E06CD8F80010421A2265884240
:103CA00021D184F836B02046FFF764FF19E0E06CBC
:103CB000D8F80010421A2265884214D1C4F85C90EA
:103CC000A4F86090FCF78CFB20642046FEF7FBFE16
:103CD0002046FFF74FFF84F836B084F835A084F80B
:103CE00034903446A5E7FCF77BFB1749C01B0A68F4
:103CF000824200D20860FCF71BFA0446FCF716FB70
:103D00002878401E10F0FF0129700DD1FFF704F94B
:103D10000E48008840B1FCF719FB2046FCF70CFA6E
:103D2000BDE8F05FFFF7C6B8FCF710FB2046BDE822
:103D3000F05FFCF701BA0000A4000020DC000020C6
:103D4000C84600083C340020E00000206800002045
:103D50001CB5084C00216B4601AA0846FDF734FF4C
:103D6000BDF800000028F5D120780128F2D1FFF736
:103D700031FFEFE75C00002030B504461A4889B0F7
:103D80000025056019480560FFF772FE18480168B4
:103D900041B11849184B0A681B689A4205D247F28C
:103DA000132008E047F2122005E0144A13781F2B75
:103DB00004D347F21120208009B030BD0B230595B4
:103DC0000695CDE907340E4B096800681B68CDE9FC
:103DD0000103CDE90315107800900023094A0AA1D8
:103DE0000E48FDF7EFFCE7E7DC000020E0000020D4
:103DF000BC460008C4460008B0460008B8460008A3
:103E0000C0460008513D000875432F4F532D4949C6
:103E100049205469636B205461736B002C2100208E
:103E200030B52A4A89B00021294B1160294C2A4A11
:103E30001D681DB12468B4FBF5F303E023680A2470
:103E4000B3FBF4F313601A46244B274D274C1A603A
:103E5000234A1160234A1160002206E005EBC203E9
:103E6000521C9980D98092B2196023889A42F5D366
:103E70001F4B1A6842B11F4A1F4D14682D68AC428F
:103E800005D247F2483108E047F2473105E01B4CC4
:103E900025781F2D04D347F24631018009B030BD8B
:103EA0000B2505910691CDE907501068144A1B684F
:103EB0001268CDE90301CDE901322078009000239A
:103EC000104A11A11648FDF77DFCE7E7E400002049
:103ED000CC460008B4460008F0000020F4000020A2
:103EE000EC000020E8000020C4360020DC4600087A
:103EF000D0460008D8460008B0460008CA46000868
:103F0000D4460008E53F000875432F4F532D49491B
:103F1000492054696D6572205461736B0000000084
:103F2000F421002070B5022280F82A20204A0129BD
:103F300014681ED0016AE1B11E4A214481611288D1
:103F4000B1FBF2F302FB13121B4B92B203EBC20262
:103F5000002315687DB1091BC1611168D1B18D695C
:103F60002D1BCD61C669AE420ED90D6945B12946FA
:103F7000F5E7416AE0E703614361106001200BE06F
:103F8000C0E90431086105E04C6964B1C0E904147A
:103F9000206148619088401C9080D18880B2814225
:103FA00000D2D08070BDC0E9041348611060F1E711
:103FB000EC000020DC460008C436002010B50020CC
:103FC0000446064B064A04E003EBC001401CCC80CB
:103FD00080B211888842F7D310BD0000C43600209B
:103FE000DC4600081CB5DFF89090DFF890A0244D67
:103FF000DFF890B000216B4601AA0846FDF7E4FD0A
:104000006846FDF741FAFCF7EBF9064628684FF0E1
:104010000308401C2860B9F80010B0FBF1F201FB66
:10402000120080B25AF83040C4B1A06929682769EB
:10403000884213D1204600F027F8208D022808D0AE
:1040400084F82A80A26812B12046E16890473C4675
:10405000EAE701212046FFF765FFF3E7FCF7C0F927
:10406000841B6846FDF76AFADBF80010A142C1D252
:10407000CBF80040BEE70000DC460008C436002054
:10408000EC000020E800002010B5104A8169128879
:10409000B1FBF2F302FB13110D4A89B202EBC1022C
:1040A000002314680169844203D1116029B14B6176
:1040B00003E04469216101B14C61012180F82A10BB
:1040C000036143619088401E908010BDDC4600086B
:1040D000C4360020704730B58FB028216846FCF701
:1040E00044F814210AA8FCF740F801210804CDE99E
:1040F00000100024029402250491CDE907504FF4EA
:10410000E01009906846FCF751FC0F20CDE90A0544
:104110006802CDE90C4002210AA80E94FCF764FB6A
:104120000FB030BD704710B5406A0021C185C18411
:10413000FCF7E1FD10BD01680C3151E8002F22F4BD
:10414000907241E80023002BF5D10168143151E849
:10415000002F22F0010241E80023002BF5D1016B72
:10416000012909D101680C3151E8002F22F0100219
:1041700041E80023002BF5D1202180F842100021D6
:104180000163704708B590F84210222901D002203F
:1041900008BD82684FF480539A4201D1016921B170
:1041A000816A9A421BD04AB10AE00268816A526869
:1041B000C2F308020A80816A891C08E0026972B1B0
:1041C0000268526802F07F020A70816A491C8162AB
:1041D000C18D491E0904090CC18503D01BE002688A
:1041E0005268F1E70168CA6822F02002CA600168DB
:1041F000CA6822F48072CA6001684A6922F001022A
:104200004A61202180F8421000214163026B012A9B
:1042100003D0FCF719FF002008BD016301680C31D1
:1042200051E8002F22F0100241E80023002BF5D1C5
:1042300001680A68D20602D50A6849680091818D32
:10424000FCF758FDE7E7000070B504460068016917
:10425000E26821F44051114301612169A0680843DB
:10426000616908432168CA6841F20C639A430243BA
:10427000CA6020684169A26921F44071114341611B
:104280001E492068884202D1FCF75AFB01E0FCF786
:1042900047FB00EBC00101EB001260686421800065
:1042A000B2FBF0F3B3FBF1F36FF018067343B2FB0C
:1042B000F0F5B2FBF0F605EB8305322303EB0515B1
:1042C000B5FBF1F5B6FBF1F605F0F00505EB0615CB
:1042D000B2FBF0F6B2FBF0F0B0FBF1F06FF01802B9
:1042E000504306EB800003EB0010B0FBF1F02168B7
:1042F00000F00F002844886070BD000000380140C5
:104300000148FCF7F9BC0000A8080020FEE7000007
:10431000014A024900F023B881430008040100204B
:104320000907090E002804DB00F1E02080F80014E2
:10433000704700F00F0000F1E02080F8141D704776
:1043400002E008C8121F08C1002AFAD1704770475E
:10435000002001E001C1121F002AFBD170472DE9A6
:10436000F04116460F460446002503E03946B047A3
:10437000641C6D1C20780028F8D12846BDE8F08127
:1043800038B504468DF8000069460320ABBE2046D0
:1043900038BD00000EB5FBF747FFFBF75DFFFCF7EC
:1043A000BFFE02A8FDF7ACF9FBF7A2FF0E4E0025F9
:1043B00002AC002208213046FCF77AF90023CDE94F
:1043C0000054032219461846FDF718FE0122082161
:1043D0003046FCF76DF90023CDE90054032219465D
:1043E0001846FDF70BFEE4E7000801400EB5FBF7A9
:1043F0001BFFFBF731FFFCF793FE02A8FDF780F9E6
:10440000FBF776FF0F4F002502AC4FF40056002259
:1044100031463846FCF74CF90023CDE9005401221F
:1044200019461846FDF7EAFD012231463846FCF7E9
:104430003FF90023CDE90054012219461846FDF743
:10444000DDFDE4E70010014010B58AB009A8FCF7D3
:10445000B9FEFCF739F9FFF73EFEFCF73FFE0020FE
:1044600006AB09AA0321059083E80700602209230F
:10447000094CCDE90232CDE9001404900346074A05
:1044800007A104F59060FDF79DF909A8FDF790F8E4
:104490000AB0002010BD000008010020F14400080F
:1044A0007374617274207461736B00000EB5FBF756
:1044B000BBFEFBF7D1FEFCF733FE02A8FDF720F9A7
:1044C000FBF716FF002402AD05A0FFF721FF002334
:1044D000022219461846CDE90045FDF78FFDF3E7A6
:1044E00068656C6C6F2075632F4F53200D0A0000B8
:1044F0002DE9F0438BB0FBF797FE09A8FDF700F913
:10450000FBF7F6FE012109AA0846FCF7EBFFFBF7D3
:104510000FFE0446FBF70AFFDFF8E09099F8000071
:10452000401CC2B289F80020012A01D1FEF7E6FC46
:10453000FBF70CFF2046FBF7FFFD00244FF00308BC
:10454000CDE9064809AE2E4801A940270625089660
:104550000594049481E8A100042000902346294A90
:1045600029A12C48FDF72EF9CDE906482A4801A9D2
:1045700008960594049481E8A1000023274A28A105
:1045800000F556700095FDF71DF9CDE9064826485F
:1045900001A908960594049481E8A10005200090E3
:1045A0001C480023214A22A1C830FDF70BF9194805
:1045B00009A9C838FFF7E8F9FBF7BAFD0446FBF78D
:1045C000B5FE99F80000401E10F0FF0289F80020A7
:1045D0000ED1FEF7A1FC1948008848B1FBF7B6FEE2
:1045E0002046FBF7A9FDFEF765FC0BB0BDE8F083A4
:1045F000FBF7ACFE2046FBF79FFDF6E7A40000208A
:1046000088020020ED4300086C65645F70633133FD
:104610000000000050060020880400209543000898
:104620006C65645F7061330088030020AD4400084E
:1046300073656E645F6D73670000000068000020A2
:10464000010202030405060708090A0B0C0D0E0FF0
:104650001010000000000000000001020304060723
:10466000080900000000010203040000BC22002031
:104670000C00000080000000BC2400200A000000A4
:10468000FC2500200C00000080000000FC2700201A
:104690008000000064000000FC2900200B000000E6
:1046A0000A0000003C3000200C00000080000000E8
:1046B00040000000E80300000A0000003C32002037
:1046C0000C0000008000000011000B000A00000038
:1046D000C43400200C000000800000001100000025
:1046E00000470008000000200801000040430008C7
:1046F0000848000808010020483A0000504300081C
:1047000001000000100000000000000000127A000C
:104710000000000000000000000000000000000099
:104720000000000000000000000000000000000089
:104730000000000000000000000000000000000079
:104740000000000000000000000000000000000069
:104750000000000000000000000000000000000059
:104760000000000000000000000000000000000049
:104770000000000000000000000000000000000039
:104780000000000000000000000000000000000029
:104790000000000000000000000000000000000019
:1047A0000000000000000000000000000000000009
:1047B00000000000000000000000000000000000F9
:1047C00000000000000000000000000000000000E9
:1047D00000000000000000000000000000000000D9
:1047E00000000000000000000000000000000000C9
:1047F00000000000000000000000000000000000B9
:084800000000000000000000B0
:04000005080000ED02
:00000001FF
