:020000040800F2
:10000000F806002089010008EF10000853100008CE
:10001000ED100008CF020008D9130008000000000E
:10002000000000000000000000000000F3100008C5
:10003000D102000800000000F1100008F5100008CF
:10004000A3010008A3010008A3010008A301000800
:10005000A3010008A3010008A3010008A3010008F0
:10006000A3010008A3010008A3010008A3010008E0
:10007000A3010008A3010008A3010008A3010008D0
:10008000A3010008A3010008A3010008A3010008C0
:10009000A3010008A3010008A3010008A3010008B0
:1000A000A3010008A3010008A3010008A3010008A0
:1000B000A3010008A3010008A3010008A301000890
:1000C000A3010008A3010008A3010008A301000880
:1000D000A3010008CD130008A3010008A301000834
:1000E000A3010008A3010008A301000800F002F822
:1000F00000F03AF80AA090E8000C82448344AAF188
:100100000107DA4501D100F02FF8AFF2090EBAE885
:100110000F0013F0010F18BFFB1A43F0010318473B
:100120005813000078130000103A24BF78C878C133
:10013000FAD8520724BF30C830C144BF04680C60ED
:10014000704700000023002400250026103A28BF35
:1001500078C1FBD8520728BF30C148BF0B60704739
:100160001FB51FBD10B510BD00F077F81146FFF7A1
:10017000F7FF01F043F900F095F803B4FFF7F2FF41
:1001800003BC00F09DF8000009488047094800477B
:10019000FEE7FEE7FEE7FEE7FEE7FEE7FEE7FEE737
:1001A000FEE7FEE704480549054A064B7047000094
:1001B00049110008ED000008F8000020F8060020B2
:1001C000F8020020F802002010B5431C02E010F8ED
:1001D000011B71B18107FAD14FF0013202C88C1AAC
:1001E0008C4314EAC211F9D0C01A0A0603D0C01E0B
:1001F00010BDC01A10BD0A0401D0801E10BD090236
:10020000FCD0401E10BD4FF0000200B513469446CE
:100210009646203922BFA0E80C50A0E80C50B1F15E
:100220002001BFF4F7AF090728BFA0E80C5048BF72
:100230000CC05DF804EB890028BF40F8042B08BF10
:10024000704748BF20F8022B11F0804F18BF00F80C
:10025000012B7047704770477047754600F02CF8C7
:10026000AE4605006946534620F00700854618B0A3
:1002700020B5FFF797FFBDE820404FF000064FF094
:1002800000074FF000084FF0000B21F00701AC46CB
:10029000ACE8C009ACE8C009ACE8C009ACE8C009EA
:1002A0008D46704710B50446AFF300802046BDE888
:1002B0001040FFF762BF0000004870479800002020
:1002C00001491820ABBEFEE7260002007047FEE79A
:1002D000704772B6FEE710B590F82110002202298F
:1002E00005D00421816380F82020012010BD016821
:1002F0000B6823F00E030B6001680B6823F0010309
:100300000B6090F84030C46B012101FA03F3636085
:1003100080F8211080F82020104610BD10B590F80C
:1003200021100024022903D00421816301243DE02F
:1003300001680A6822F00E020A6001680A6822F069
:1003400001020A601A4A0168914201D1012121E0AB
:10035000174A1432914201D110211BE0144A28326D
:10036000914201D1891515E0114A3C32914201D1E7
:1003700089140FE00E4A5032914202D14FF480317D
:1003800008E00B4A6432914202D14FF4801101E03F
:100390004FF08071064A083A5160012180F821101F
:1003A000002180F82010416B01B18847204610BD24
:1003B0000800024070B5044600F004F90546601CD0
:1003C00002D004480078044400F0FCF8401BA0422E
:1003D000FAD370BD400000202DE9F84FDFF8B89146
:1003E0000024A9F1040B23460F2709F1040AABF1FD
:1003F000040EC9E00125A5402A40AA427DD1674EDE
:10040000D1F804C0ACEB0608B44532D014DCBCF122
:10041000030F3AD009DCBCF1000F2AD0BCF1010F68
:100420001CD0BCF1020F31D11DE0BCF1110F17D06F
:10043000BCF1120F2AD119E0B8F5881F19D006DCDB
:10044000B8F5803F15D0B8F5801F1FD111E0B8F581
:10045000001F0ED0B8F5041F18D10AE0CB6815E0D4
:10046000CB681B1D12E0CB6808330FE0CB680C3360
:100470000CE08B682BB1012B4FF0080303D04561D2
:1004800004E0042302E0056100E00023FF2A01D814
:10049000064601E000F104064FEA840501D9A5F102
:1004A0002005D6F8008007FA05FC28EA0C0803FAB4
:1004B00005F548EA0508C6F800804D68ED0062D5EC
:1004C000374DAE6946F00106AE61AD6924F0030612
:1004D00005F001050095334D06EB050CDCF80850DE
:1004E000A607360F07FA06F825EA0805DFF8B880F0
:1004F000404503D14FF0000817E044E0DFF8AC803E
:10050000404502D14FF001080FE0DFF8A4804045DC
:1005100002D14FF0020808E0DFF89880404502D190
:100520004FF0030801E04FF0040808FA06F848EA23
:100530000508CCF808804D68D9F80060ED024D46FA
:1005400001D5164300E096432E604D68DAF800604E
:10055000AD02554601D5164300E096432E604D6826
:10056000DBF80060AD035D4601D5164300E096431D
:100570002E604D68DEF80060ED03754601D5164328
:1005800000E096432E60641C0D682A46E5407FF427
:1005900031AFBDE8F88F00000804014000001110E1
:1005A000001002400000014000080140000C014022
:1005B00000100140001401400AB1016170470904B4
:1005C000FBE7000001488068704700004000002001
:1005D0000248816802781144816070474000002021
:1005E000074810B5016841F010010160032000F0D8
:1005F00067F80F2000F006F800F024F8002010BD86
:100600000020024070B50D4D04464FF47A712878F1
:10061000B1FBF0F00A490968B1FBF0F000F0CEFA46
:1006200048B9102C07D200222146501E00F028F8AD
:1006300000206C6070BD012070BD000040000020F3
:100640004C0000200C4808B5816941F0010181612E
:10065000816901F001010091C16941F08051C161DE
:10066000C06900F0805000900448416821F0E061CA
:1006700041F08061416008BD00100240000001406F
:10068000F0B40E4B1B680C46C3F30223C3F10705FD
:10069000042D00D90425191D072901D2002300E0EB
:1006A000DB1E012606FA05F1491E214099409E40B5
:1006B000761E16403143F0BC00F08FBE0CED00E01A
:1006C000064900F0070208684FF6FF03184040EAA9
:1006D0000220034A10430860704700000CED00E060
:1006E0000000FA052DE9F0470F46050061D0434EA2
:1006F000306800F00700B84209D2306820F00700E7
:1007000038433060306800F00700B84251D12868A3
:100710003B4C810712D5400703D5606840F4E06088
:1007200060602878000703D5606840F4605060601E
:100730006068A96820F0F000084360602878C0076E
:1007400028D06868012810D02168022810D08907B5
:1007500000292EDA616821F0030101436160FFF78F
:1007600031FF804641F288390DE021688903EFE7C7
:100770008901EDE7FFF726FFA0EB0801494502D903
:100780000320BDE8F0876068696800F00C00B0EBFA
:10079000810FEFD1306800F00700B8420BD9306804
:1007A00020F0070038433060306800F00700B8429E
:1007B00001D00120E5E72878400705D56068E968A1
:1007C00020F4E060084360602878000706D5606880
:1007D000296920F4605040EAC100606000F038F8F8
:1007E0006168084AC1F30311515CC84006490860BA
:1007F00006480068FFF706FF0020C2E7002002401D
:10080000001002405E1400084C000020440000204C
:100810000448054900684968044AC1F30221515C53
:10082000C84070474C000020001002406E140008C1
:100830000448054900684968044AC1F3C221515C73
:10084000C84070474C000020001002406E140008A1
:100850000E4A51680E4801F00C03042B11D0082BEE
:100860000FD10C48C1F38343C903C05C0AD551685A
:10087000084AC1F34041921E515C054A5043B0FB07
:10088000F1F07047044948437047000000100240EF
:1008900000127A004E14000800093D002DE9F84FBF
:1008A000040070D02078C04DC00749D06868C0F3FC
:1008B0008100012807D06868C0F38100022809D1AF
:1008C0006868C00306D52868800339D560680028A9
:1008D000E7D035E06068B0F5803F0BD010B1B0F5DF
:1008E000A02F11D0286820F480302860286820F4D8
:1008F000802002E0286840F480302860606890B171
:10090000FFF760FE06460AE0286840F48020286071
:10091000F0E700BFFFF756FE801B642873D82868F5
:100920008003F7D50CE0FFF74DFE064605E000BF5B
:10093000FFF748FE801B6428F0D828688003F7D4AE
:1009400020789A4E80074FF001094FF0000839D502
:10095000686810F00C0F07D06868C0F381000228A7
:1009600009D16868C00306D42868800714D52069B7
:10097000012808D110E02069B0B1C6F80090FFF757
:1009800021FE074605E00AE1FFF71CFEC01B022816
:10099000C4D828688007F7D52868616920F0F80076
:1009A00040EAC10028600DE0C6F80080FFF70AFEAB
:1009B000074604E0FFF706FEC01B022823D828687C
:1009C0008007F7D4207800072CD57948A169D9B1E0
:1009D000C0F80090FFF7F6FD074604E0FFF7F2FDD0
:1009E000C01B02280FD8686A8007F7D571484FF4FA
:1009F000FA510068B0FBF1F0009000BF0098411E72
:100A00000091FAD20EE080E0C0F80080FFF7DAFD36
:100A1000074604E0FFF7D6FDC01B022875D8686AB8
:100A20008007F7D42078400760D5E8690027C00028
:100A300008D4E86940F08050E861E869012700F0D7
:100A4000805000905C480168C90513D40168834652
:100A500041F480710160FFF7B5FD824606E000BFFA
:100A6000FFF7B0FDA0EB0A0064284ED8DBF80000C9
:100A7000C005F5D5E06801280AD008B1052813D0D3
:100A8000286A20F001002862286A20F0040002E0B1
:100A9000286A40F001002862E06841F2883B98B182
:100AA000FFF790FD82460BE0286A40F004002862C0
:100AB000EEE700BFFFF786FDA0EB0A0159455AD8C3
:100AC000286A8007F6D50CE0FFF77CFD824605E03A
:100AD000FFF778FDA0EB0A0159454CD8286A80073A
:100AE000F6D41FB1E86920F08050E861E06988B36E
:100AF0006968C1F38101022944D00228C6F86080E8
:100B000004D0FFF75FFD044638E034E0FFF75AFDFC
:100B1000074604E0FFF756FDC01B02282BD82868C3
:100B20008001F7D4206AB0F5803F05D16868A168DC
:100B300020F4003008436860D4E90801084369687C
:100B400021F4741108436860C6F86090FFF73AFD1D
:100B5000044606E025E000BFFFF734FD001B022835
:100B600009D828688001F7D51BE000BFFFF72AFDF0
:100B7000001B022802D90320BDE8F88F28688001F5
:100B8000F4D40EE00128F7D06868226A00F48031BE
:100B9000914204D1616A00F47010884201D00120B2
:100BA000EAE70020E8E700000010024000004242AF
:100BB000800442424C0000200070004010B5401EEE
:100BC000B0F1807F01D3012010BD4FF0E0246061BF
:100BD0000F21601700F001FC0020A06107202061B8
:100BE000002010BD70477047F8B5016804460868DA
:100BF000CA684B6910F00F0F4FF0000559D003F091
:100C0000010602F49077374365D0C10705D0D105BE
:100C100003D5616C41F001016164410705D5D90735
:100C200003D0616C41F002016164810705D5D907E9
:100C300003D0616C41F004016164010707D502F043
:100C40002001314303D0616C41F008016164616CA3
:100C500000293AD0800604D5900602D5204600F03F
:100C6000A3FA20684069616CC0F38010090700D4C2
:100C700060B3204600F071FA20684069400621D533
:100C80002068143050E8001F21F0400140E80012B5
:100C9000002AF5D1E06BA8B16D494163E06BFFF725
:100CA0003DFB002811D0E06B416B01B0BDE8F04086
:100CB000084783060FD593060DD52046BDE8F840BA
:100CC00000F072BA2046FFF78EFFF8BD2046FFF70E
:100CD0008AFF6564F8BD266B2023012E7CD1C606F1
:100CE0007AD5D60678D508684868009048694FF0EC
:100CF0000206400640D5E16B086840680004000C1D
:100D0000E8D0A28D8242E5D9E085886920282DD0DF
:100D100020680C3050E8001F21F4807140E8001278
:100D2000002AF5D12068143050E8001F21F001019D
:100D300040E80012002AF5D12068143050E8001F66
:100D400021F0400140E80012002AF5D184F8423039
:100D5000256320680C3050E8001F21F0100140E8A6
:100D60000012002AF5D1E06BFFF7B5FA6663A08D9B
:100D7000E18D401A81B22AE0A08DE18D401A81B246
:100D8000E08D0028A6D00029A4D022680C3252E8B9
:100D9000000F20F4907042E80007002FF5D1206882
:100DA000143050E8002F22F0010240E80027002F05
:100DB000F5D184F84230256320680C3050E8002FCC
:100DC00022F0100240E80023002BF5D16663204694
:100DD000FFF708FFF8BDFFE705062BD5150629D557
:100DE00094F841002128F5D1A068B0F5805F01D1C9
:100DF0002069B0B1206A411C2162216800784860F6
:100E0000E08C401E0004000CE084E3D12068C1683F
:100E100021F08001C1602068C16841F04001C160DB
:100E2000D8E7206A0088C0F308004860206A801C68
:100E30002062E5E74006CDD55006CBD5CA682046EE
:100E400022F04002CA6084F8413000F001F9C1E7A5
:100E50004B11000870B5040004D094F8410000253F
:100E600010B106E0012070BD84F84050204600F02B
:100E700023F8242084F841002068C16821F400513F
:100E8000C160204600F0F2F92068016921F4904128
:100E900001612068416921F02A0141612068C1682F
:100EA00041F40051C1606564202084F8410084F859
:100EB00042006563002070BD30B585B00024009409
:100EC00001940294039400681449884224D1144880
:100ED000816941F480418161816901F4804104911B
:100EE000816941F00401816180690E4D00F00400C8
:100EF00004904FF4007000900220019003200390B2
:100F000069462846FFF768FA2815CDE900046946C6
:100F100028460294FFF760FA05B030BD0038014062
:100F2000001002400008014090F84230202B01D010
:100F30000220704721B11AB10023036300F0F2B917
:100F400001207047184810B5017800224FF6FF7451
:100F5000302913D031291BD042601730FFF734F904
:100F6000114982B223461731104800F021F8BDE83C
:100F7000104001220C490D48FFF7D6BF42600A48D5
:100F80003130FFF721F9084982B223463131EBE7CE
:100F90000121416004482530FFF716F9024982B269
:100FA00023462531E0E7000000000020500000202B
:100FB0002DE9F843044690F84100984616460D4640
:100FC000202802D00220BDE8F88385B17EB1002040
:100FD0006064212084F84100FFF7F4FAA68481467A
:100FE000E684A0682027B0F5805F02D003E00120EE
:100FF000E9E7206910B12E4600250EE000260CE03E
:101000008021204600F0A9F9A8B9C6B116F8010B55
:1010100021684860E08C401EE084E08C4B464FF035
:101020000002CDF800800028EAD14FF040012046B0
:1010300000F093F940B184F841700320C3E735F81C
:10104000020BC0F30800E3E784F841700020BAE720
:101050007047FEE730B585B0002414480094019431
:1010600002940394816941F020018161816901F05A
:1010700020010491816941F00401816180690C4D76
:1010800000F004000490002210212846FFF794FA93
:10109000102000900120CDE9010402200390694650
:1010A0002846FFF799F905B030BD00000010024056
:1010B000000801400C4810B50A4901604FF4E131C5
:1010C0004160002181600C22C160C0E9041281618D
:1010D000C161FFF7BFFE002803D0BDE81040FFF755
:1010E000F8B810BD0038014050000020FEE7FEE7D0
:1010F00070477047FFF76CBA10B590B0282168466A
:10110000FFF781F814210AA8FFF77DF8022000906C
:101110000120049010200024059007946846FFF7F2
:10112000BDFB08B172B6FEE70F20CDE90A040C94AE
:101130000D9400210AA80E94FFF7D4FA002801D0DC
:1011400072B6FEE710B010BD704710B5406A0021BE
:10115000C185C184FFF747FD10BD01680C3151E81E
:10116000002F22F4907241E80023002BF5D1016892
:10117000143151E8002F22F0010241E80023002B36
:10118000F5D1016B012909D101680C3151E8002F1B
:1011900022F0100241E80023002BF5D1202180F835
:1011A000421000210163704708B590F842102229CF
:1011B00001D0022008BD82684FF480539A4201D1C9
:1011C000016921B1816A9A421BD04AB10AE00268E2
:1011D000816A5268C2F308020A80816A891C08E0A9
:1011E000026972B10268526802F07F020A70816A75
:1011F000491C8162C18D491E0904090CC18503D0B7
:101200001BE002685268F1E70168CA6822F0200218
:10121000CA600168CA6822F48072CA6001684A69BB
:1012200022F001024A61202180F84210002141632E
:10123000026B012A03D0FFF785FE002008BD016381
:1012400001680C3151E8002F22F0100241E8002320
:10125000002BF5D101680A68D20602D50A684968F0
:101260000091818DFFF7BEFCE7E7000070B50446F2
:1012700000680169E26821F440511143016121696C
:10128000A0680843616908432168CA6841F20C6399
:101290009A430243CA6020684169A26921F44071FF
:1012A000114341611E492068884202D1FFF7C0FA0C
:1012B00001E0FFF7ADFA00EBC00101EB001260683E
:1012C00064218000B2FBF0F3B3FBF1F36FF018067A
:1012D0007343B2FBF0F5B2FBF0F605EB8305322366
:1012E00003EB0515B5FBF1F5B6FBF1F605F0F005DE
:1012F00005EB0615B2FBF0F6B2FBF0F0B0FBF1F037
:101300006FF01802504306EB800003EB0010B0FBB7
:10131000F1F0216800F00F002844886070BD0000E3
:101320000038014081628285C2850021416422210A
:1013300080F84210016921B10168CA6842F48072E4
:10134000CA6001684A6942F001024A610068C168E6
:1013500041F02001C160002070472DE9F843984614
:1013600017460D460446089E24E0701C22D0FFF765
:1013700029F9A0EB0800B0421AD8CEB12068C168A4
:10138000490717D5802D15D0402D13D00168C943CA
:1013900009070FD401680025406800902046FFF738
:1013A000DCFE0820606484F840500120BDE8F8832A
:1013B0000320FBE72068006835EA000004D0002025
:1013C000B842D2D00020F1E70120F9E70148FFF749
:1013D0000BBC000050000020FEE70907090E0028A2
:1013E00004DB00F1E02080F80014704700F00F00EB
:1013F00000F1E02080F8141D70470000FFF7F0F8BE
:10140000FFF77AFEFFF726FEFFF754FE01220D4993
:101410000D48FFF789FD0B4C4FF6FF754FF47A76B8
:1014200060680128FCD107480830FEF7CDFE054969
:1014300082B22B4608310448FFF7BAFD3046FEF76A
:10144000B9FFEDE700000020500000200102020378
:101450000405060708090A0B0C0D0E0F10100000FA
:101460000000000000000102030406070809000054
:10147000000001020304000098140008000000208E
:101480005000000028010008E81400085000002067
:10149000A806000044010008000000000000000051
:1014A00068656C6C6F2057696E646F77730A0043D0
:1014B0006F6D6D616E644572726F720A0053746174
:1014C00072742E2E2E2E2E0A0053746F702E2E2E16
:1014D0002E2E2E0A00000000010000001000000067
:0814E0000000000000127A0078
:04000005080000ED02
:00000001FF
